:100000000C942A000C9447000C9447000C941C0399
:100010000C9447000C9447000C9447000C94470044
:100020000C9447000C9447000C948A020C944700EF
:100030000C9447000C9447000C9447000C94470024
:100040000C9447000C9447000C9447000C94470014
:100050000C94470011241FBECFE5D8E0DEBFCDBF12
:1000600010E0A0E6B0E0E8E1F9E002C005900D92F2
:10007000AA36B107D9F720E0AAE6B0E001C01D9288
:10008000AF36B207E1F70E94F6010C948A040C9493
:100090000000E199FECF90E09FBB8EBB6DBBE29A62
:1000A000E19A0895E199FECF90E09FBB8EBBE09A64
:1000B0008DB390E0089580EF84BB8FEF85BB0895EA
:1000C000AC98AD9AAE9AAF9A989B44C0999B44C0A5
:1000D0009A9B44C09B9B44C08FE19EE40197F1F73B
:1000E00000C00000AC9AAD98AE9AAF9A989B3AC007
:1000F000999B3AC09A9B3AC09B9B3AC08FE19EE481
:100100000197F1F700C00000AC9AAD9AAE98AF9A93
:10011000989B30C0999B30C09A9B30C09B9B30C04D
:100120008FE19EE40197F1F700C00000AC9AAD9A10
:10013000AE9AAF98989B26C0999B26C09A9B26C0E2
:100140009B9B26C08FE19EE40197F1F700C0000061
:100150008FEF089587E3089588E3089589E308956C
:100160008FE2089584E3089585E3089586E3089572
:100170008AE2089581E3089582E3089583E3089570
:100180008DE2089583E6089580E308958DE3089550
:100190008BE20895CF930E9460008F3FE1F30E94AD
:1001A0006000C82F0E9460008F3FE1F78C2FCF9135
:1001B0000895DA98882314F4DF9A01C0DF9886FF47
:1001C00002C0DE9A01C0DE9885FF02C0DD9A01C040
:1001D000DD9884FF02C0DC9A01C0DC98DB9AEFE96D
:1001E000FFE03197F1F700C00000DB98EFE9FFE096
:1001F0003197F1F700C0000083FF02C0DF9A01C011
:10020000DF9882FF02C0DE9A01C0DE9881FF02C043
:10021000DD9A01C0DD9880FF02C0DC9A01C0DC9845
:10022000DB9A8FE99FE00197F1F700C00000DB98AF
:10023000EFE9FFE03197F1F700C0000008958AB3BD
:100240008D6F8ABB83E00E94D9008FE79EE3019700
:10025000F1F700C0000083E00E94D9008FE79EE321
:100260000197F1F700C0000083E00E94D9008FE7FA
:100270009EE30197F1F700C0000082E00E94D900E0
:1002800088E20E94D90081E00E94D90086E00E94A5
:10029000D9008CE00E94D9009FEF29EF80E09150B7
:1002A00020408040E1F700C000000895DA9A8823DA
:1002B00014F4DF9A01C0DF9886FF02C0DE9A01C005
:1002C000DE9885FF02C0DD9A01C0DD9884FF02C080
:1002D000DC9A01C0DC98DB9AEFE9FFE03197F1F797
:1002E00000C00000DB98EFE9FFE03197F1F700C0B4
:1002F000000083FF02C0DF9A01C0DF9882FF02C0C6
:10030000DE9A01C0DE9881FF02C0DD9A01C0DD984F
:1003100080FF02C0DC9A01C0DC98DB9A8FE99FE085
:100320000197F1F700C00000DB98EFE9FFE031979B
:10033000F1F700C0000008958F929F92AF92BF9294
:10034000EF92FF921F93CF93DF93CDB7DEB72A973B
:100350000FB6F894DEBF0FBECDBF611571058105E4
:100360009105A1F110E00F2EFAE08F2E912CA12C17
:10037000B12CF02D01C0122FEE24E394F12CEC0EE1
:10038000FD1EE10EF11C17FDFA94A50194010E94D7
:100390006804F7016083622F732F842F952F21E06B
:1003A000210F611571058105910529F7112374F05D
:1003B000E1E0F0E0EC0FFD1FE10FF11D17FDFA95F4
:1003C0008081805D0E945601115092F72A960FB6E7
:1003D000F894DEBF0FBECDBFDF91CF911F91FF908C
:1003E000EF90BF90AF909F908F9008958BB78062F1
:1003F0008BBF84B7826084BF0E941F010E945B0094
:100400000E942B038AEF0E945D04C29A80E80E943A
:10041000D90080E00E945200BC0180E090E00E9480
:100420009C018AE30E94560181E00E945200BC01B7
:1004300080E090E00E949C018AE30E94560182E0E5
:100440000E945200BC0180E090E00E949C0180E28A
:100450000E94560180E20E94560180916A0081301C
:1004600059F50E94CA008053C82FD0E0BE0180E039
:100470000E94490080E00E9452000E94FB030E94FB
:10048000CA00BE01660F771FCC0FDD1FCC0FDD1F2A
:10049000CC0FDD1F6C0F7D1F8053680F711D80E036
:1004A0000E94490080E00E9452000E94FB0380915C
:1004B0006A008F5F80936A0080916A00823009F041
:1004C000A5CF0E94CA008053C82FD0E0BE0181E0B2
:1004D0000E94490081E00E9452000E9437030E945E
:1004E000CA00BE01660F771FCC0FDD1FCC0FDD1FCA
:1004F000CC0FDD1F6C0F7D1F8053680F711D81E0D5
:100500000E94490081E00E9452000E94370310922D
:100510006A007CCF1F920F920FB60F9211242F9377
:100520003F934F935F936F937F938F939F93AF937B
:10053000BF93EF93FF9380916B0090916C00A0911B
:100540006D00B0916E000196A11DB11D80936B00EE
:1005500090936C00A0936D00B0936E00883E934022
:10056000A105B10589F482E00E945200BC016F5FD1
:100570007F4F82E00E94490010926B0010926C0045
:1005800010926D0010926E0082E00E945200CC9793
:1005900071F460E070E082E00E94490081E00E9416
:1005A0005200BC016F5F7F4F81E00E94490081E0F3
:1005B0000E945200CC9771F460E070E081E00E94EC
:1005C000490080E00E945200BC016F5F7F4F80E0D5
:1005D0000E94490080E00E945200489729F460E0A0
:1005E00070E080E00E94490082E00E9452000E9478
:1005F000990380916A00813049F081E00E945200A5
:100600000E94370380916A00823029F080E00E94C6
:1006100052000E94FB03FF91EF91BF91AF919F9118
:100620008F917F916F915F914F913F912F910F909B
:100630000FBE0F901F9018951F920F920FB60F923A
:1006400011248F9381E080936A008F910F900FBEE9
:100650000F901F90189581B38F6781BB8FE782BB86
:10066000B99ABB9ABC9ABD9ABE9ABF9A0895C19A8C
:10067000C39AC49AC59AC69AC79A8A3018F5C5987B
:1006800092B3907892BB92B3E82FF0E0E05AFF4F1C
:100690008081892B82BB8FE891E00197F1F700C040
:1006A0000000C59AC49882B3807882BB92B38091CF
:1006B0006000892B82BBEFE8F1E03197F1F700C0D1
:1006C0000000089596EF980F9A3590F5C49892B36C
:1006D000907892BB32B39DEC899F912D1124969511
:1006E00096959695E92FF0E0E05AFF4F2081232B55
:1006F00022BBEFE8F1E03197F1F700C00000C49AA7
:10070000C59822B3207822BB32B3990F292F220F2C
:10071000220F920FE82FE91BF0E0E05AFF4F808193
:10072000832B82BB8FE891E00197F1F700C00000B6
:100730000895C19AC39AC49AC59AC69AC79A8A302C
:1007400018F5C39892B3907892BB92B3E82FF0E07B
:10075000E05AFF4F8081892B82BB8FE891E001979F
:10076000F1F700C00000C39AC19882B3807882BBC1
:1007700092B380916000892B82BBEFE8F1E0319762
:10078000F1F700C00000089596EF980F9A3590F5A4
:10079000C19892B3907892BB32B39DEC899F912D12
:1007A0001124969596959695E92FF0E0E05AFF4F23
:1007B0002081232B22BBEFE8F1E03197F1F700C055
:1007C0000000C19AC39822B3207822BB32B3990F9C
:1007D000292F220F220F920FE82FE91BF0E0E05A99
:1007E000FF4F8081832B82BB8FE891E00197F1F767
:1007F00000C000000895C19AC39AC49AC59AC69AC7
:10080000C79A8A3018F5C79892B3907892BB92B382
:10081000E82FF0E0E05AFF4F8081892B82BB8FE800
:1008200091E00197F1F700C00000C79AC69882B323
:10083000807882BB92B380916000892B82BBEFE805
:10084000F1E03197F1F700C00000089596EF980F9E
:100850009A3590F5C69892B3907892BB32B39DECDE
:10086000899F912D1124969596959695E92FF0E004
:10087000E05AFF4F2081232B22BBEFE8F1E03197B4
:10088000F1F700C00000C69AC79822B3207822BBB7
:1008900032B3990F292F220F220F920FE82FE91B55
:1008A000F0E0E05AFF4F8081832B82BB8FE891E01C
:1008B0000197F1F700C00000089593B79B6893BFBC
:1008C0008CBF89B7826089BF8FB780688FBF08955A
:1008D000A1E21A2EAA1BBB1BFD010DC0AA1FBB1F44
:1008E000EE1FFF1FA217B307E407F50720F0A21BB6
:1008F000B30BE40BF50B661F771F881F991F1A9423
:1009000069F760957095809590959B01AC01BD014C
:08091000CF010895F894FFCF18
:0A0918003F065B4F666D7D077F6FA1
:00000001FF
